:020000040800F2
:1080000000000820E1EB000809EB000817EB00086E
:108010001DEB000823EB000829EB0008000000001E
:1080200000000000000000000000000011580108DE
:108030002FEB000800000000115A01083DEB00087A
:1080400031EC000831EC000831EC000831EC00089C
:1080500031EC000831EC000831EC000831EC00088C
:1080600031EC000857EB000831EC000831EC000857
:1080700031EC000831EC000831EC000831EC00086C
:1080800031EC000831EC000831EC000831EC00085C
:1080900031EC000831EC000831EC000831EC00084C
:1080A00031EC000831EC000831EC000831EC00083C
:1080B00031EC000831EC000831EC000831EC00082C
:1080C00031EC000831EC000831EC000831EC00081C
:1080D00031EC000831EC000831EC000831EC00080C
:1080E00031EC000831EC000831EC000831EC0008FC
:1080F00031EC000831EC000831EC000831EC0008EC
:1081000031EC000831EC000831EC000831EC0008DB
:1081100031EC000831EC000831EC000831EC0008CB
:1081200065EB000831EC000831EC000879EB000841
:1081300031EC000831EC000831EC000831EC0008AB
:1081400031EC000831EC000831EC000831EC00089B
:1081500031EC00088DEB000831EC0008A1EB0008C1
:1081600031EC000831EC000831EC000831EC00087B
:1081700031EC000831EC000831EC00080000000090
:1081800031EC000831EC000831EC000831EC00085B
:1081900031EC000831EC000831EC000831EC00084B
:1081A00031EC000831EC000831EC000831EC00083B
:1081B00031EC000831EC000831EC000831EC00082B
:1081C00031EC000831EC00080000000031EC000840
:1081D00031EC000831EC000831EC000831EC00080B
:1081E00031EC000831EC000831EC000831EC0008FB
:0881F00031EC000831EC00083D
:1082000010B5054C237833B9044B13B10448AFF3D0
:1082100000800123237010BDA0000020000000009A
:108220004C6D010808B5034B1BB103490348AFF37C
:10823000008008BD00000000A40000204C6D010873
:108240004B1C012B98BF70472DE9F003911C9B0834
:10825000B1F80480B1F802900A8831F802CC804469
:10826000814402448444D9F80070D8F8006015684D
:10827000DCF80040C9F80060C8F80070CCF8005085
:108280001460D9F80470D8F804605568DCF804402C
:10829000C9F80460C8F80470CCF804505460083180
:1082A000013BD5D1BDE8F00370474B1C012B98BFB3
:1082B00070472DE9F003911C9B08B1F80480B1F8D8
:1082C00002900A8831F802CC00EB580800EB5909FB
:1082D00000EB520200EB5C0CD9F80070D8F800609B
:1082E0001568DCF80040C9F80060C8F80070CCF8E8
:1082F000005014600831013BDFD1BDE8F003704746
:10830000034613F8012B002AFBD1181A01387047D5
:1083100053B94AB9002908BF00281CBF4FF0FF31EC
:108320004FF0FF3000F072B9ADF1080C6DE904CEEA
:1083300000F006F8DDF804E0DDE9022304B0704740
:108340002DE9F047089E04468846002B4BD18A420F
:10835000154667D9B2FA82F24AB1C2F1200701FA92
:1083600002F320FA07F7954047EA030894404FEAE2
:10837000154E230CB8FBFEF71FFA85FC0EFB178881
:1083800043EA084307FB0CF1994209D9EB1807F1BE
:10839000FF3080F01B81994240F21881023F2B444C
:1083A0005B1AA4B2B3FBFEF00EFB103344EA0344A5
:1083B00000FB0CFCA44509D92C1900F1FF3380F017
:1083C0000781A44540F2048102382C4440EA07406A
:1083D000A4EB0C0400271EB1D4400023C6E90043DF
:1083E0003946BDE8F0878B4209D9002E00F0EB80BA
:1083F0000027C6E9000138463946BDE8F087B3FAE0
:1084000083F7002F47D18B4202D3824200F2FA80D9
:10841000841A61EB030301209846002EE0D0C6E9E0
:108420000048DDE702B9FFDEB2FA82F2002A40F02E
:108430008F80491B4FEA154E1FFA85F80127B1FBC3
:10844000FEFC230C0EFB1C1143EA014308FB0CF15C
:10845000994207D9EB180CF1FF3002D2994200F291
:10846000CD808446591AA3B2B1FBFEF00EFB101466
:1084700043EA044408FB00F8A04507D92C1900F191
:10848000FF3302D2A04500F2B6801846A4EB0804E0
:1084900040EA0C409FE7C7F1200CBB4022FA0CFEDB
:1084A0004EEA030E01FA07F420FA0CF521FA0CF358
:1084B0004FEA1E482543B3FBF8F92C0C08FB19338F
:1084C0001FFA8EFA44EA034309FB0AF49C4202FABB
:1084D00007F200FA07F10BD91EEB030309F1FF3095
:1084E00080F087809C4240F28480A9F102097344A5
:1084F0001B1BADB2B3FBF8F008FB103345EA034495
:1085000000FB0AFAA24508D91EEB040400F1FF3370
:108510006BD2A24569D90238744440EA0940A0FBF5
:108520000289A4EB0A044C45C2464B4654D351D0B1
:10853000002E69D0B1EB0A0564EB030404FA0CFCCD
:10854000FD40FC404CEA0505C6E90054002747E71A
:10855000C2F1200320FA03F7954001FA02F021FA54
:1085600003F34FEA154E3843010CB3FBFEF71FFA35
:1085700085F80EFB173341EA034107FB08F38B42F2
:1085800004FA02F407D9691807F1FF3C2FD28B4295
:108590002DD9023F2944CB1A81B2B3FBFEF00EFB6A
:1085A000103341EA034100FB08F38B4207D96918F5
:1085B00000F1FF3C17D28B4215D902382944C91A61
:1085C00040EA07473BE73746304609E70746E7E614
:1085D0001846FBE64145ABD2B8EB020A69EB0E0246
:1085E00001381346A4E76046E9E7184695E7674671
:1085F000D1E781467CE702382C4447E7ACF1020C16
:108600002B442FE7384608E73746E9E6704700BFB6
:1086100080B582B000AF87ED010A3860D7ED017AEE
:10862000F5EEC07AF1EE10FA0ADB97ED010A0DF0D3
:108630007BFEF0EE407A3B68C3ED007A002305E054
:108640003B684FF000021A604FF0FF3318460837BE
:10865000BD4680BD80B588B000AFF860B9607A6073
:108660007B689B08FB6182E0FB681A1DFA601B684F
:10867000BB61FB681A1DFA601B687B6197ED067A87
:10868000D7ED067A27EE277AD7ED056AD7ED057A7A
:1086900066EEA77A77EE277ABB681A1DBA6018468D
:1086A000B0EE670AFFF7B4FFFB681A1DFA601B689B
:1086B000BB61FB681A1DFA601B687B6197ED067A47
:1086C000D7ED067A27EE277AD7ED056AD7ED057A3A
:1086D00066EEA77A77EE277ABB681A1DBA6018464D
:1086E000B0EE670AFFF794FFFB681A1DFA601B687B
:1086F000BB61FB681A1DFA601B687B6197ED067A07
:10870000D7ED067A27EE277AD7ED056AD7ED057AF9
:1087100066EEA77A77EE277ABB681A1DBA6018460C
:10872000B0EE670AFFF774FFFB681A1DFA601B685A
:10873000BB61FB681A1DFA601B687B6197ED067AC6
:10874000D7ED067A27EE277AD7ED056AD7ED057AB9
:1087500066EEA77A77EE277ABB681A1DBA601846CC
:10876000B0EE670AFFF754FFFB69013BFB61FB6951
:10877000002B7FF479AF7B6803F00303FB6122E0F9
:10878000FB681A1DFA601B68BB61FB681A1DFA6062
:108790001B687B6197ED067AD7ED067A27EE277A7C
:1087A000D7ED056AD7ED057A66EEA77A77EE277AD8
:1087B000BB681A1DBA601846B0EE670AFFF728FFBB
:1087C000FB69013BFB61FB69002BD9D100BF20375E
:1087D000BD4680BD80B48BB000AFF860B9607A60F0
:1087E0003B600023BB610023FB61FB681A1DFA603C
:1087F0001B687B62BB68013B9B083B6251E0FB68E6
:108800001A1DFA601B687B61FB681A1DFA601B6801
:108810003B6197ED097AD7ED057AB4EEE77AF1EE90
:1088200010FA04D57B697B62BB690133FB61FB688D
:108830001A1DFA601B687B6197ED097AD7ED047AFF
:10884000B4EEE77AF1EE10FA04D53B697B62BB69BE
:108850000233FB61FB681A1DFA601B683B6197EDF0
:10886000097AD7ED057AB4EEE77AF1EE10FA04D57D
:108870007B697B62BB690333FB6197ED097AD7EDB6
:10888000047AB4EEE77AF1EE10FA04D53B697B6224
:10889000BB690433FB61BB690433BB613B6A013BC9
:1088A0003B623B6A002BAAD1BB68013B03F0030388
:1088B0003B6216E0FB681A1DFA601B687B6197ED4E
:1088C000097AD7ED057AB4EEE77AF1EE10FA05D51C
:1088D0007B697B62BA683B6AD31AFB613B6A013BE6
:1088E0003B623B6A002BE5D17B687A6A1A603B6881
:1088F000FA691A6000BF2C37BD465DF8047B7047EB
:1089000080B48BB000AFF860B9607A604FF00003BC
:108910007B62BB689B083B6236E0FB681A1DFA600D
:108920001B68FB61FB681A1DFA601B68BB61FB6872
:108930001A1DFA601B687B61FB681A1DFA601B68D0
:108940003B6197ED097AD7ED077A77EE277AC7ED85
:10895000097A97ED097AD7ED067A77EE277AC7ED8F
:10896000097A97ED097AD7ED057A77EE277AC7ED80
:10897000097A97ED097AD7ED047A77EE277AC7ED71
:10898000097A3B6A013B3B623B6A002BC5D1BB685D
:1089900003F003033B620DE0FB681A1DFA60D3EDA0
:1089A000007A97ED097A77EE277AC7ED097A3B6A64
:1089B000013B3B623B6A002BEED1BB6807EE903A6D
:1089C000B8EE677AD7ED096AC6EE877A7B68C3EDA1
:1089D000007A00BF2C37BD465DF8047B704780B439
:1089E0008BB000AFF860B9607A603B600023BB6178
:1089F0000023FB61FB681A1DFA601B687B62BB6881
:108A0000013B9B083B6251E0FB681A1DFA601B6842
:108A10007B61FB681A1DFA601B683B6197ED097A60
:108A2000D7ED057AB4EEE77AF1EE10FA04DD7B6952
:108A30007B62BB690133FB61FB681A1DFA601B682E
:108A40007B6197ED097AD7ED047AB4EEE77AF1EE1F
:108A500010FA04DD3B697B62BB690233FB61FB6892
:108A60001A1DFA601B683B6197ED097AD7ED057A0C
:108A7000B4EEE77AF1EE10FA04DD7B697B62BB6944
:108A80000333FB6197ED097AD7ED047AB4EEE77A08
:108A9000F1EE10FA04DD3B697B62BB690433FB61D4
:108AA000BB690433BB613B6A013B3B623B6A002B01
:108AB000AAD1BB68013B03F003033B6216E0FB68ED
:108AC0001A1DFA601B687B6197ED097AD7ED057A6C
:108AD000B4EEE77AF1EE10FA05DD7B697B62BA68E5
:108AE0003B6AD31AFB613B6A013B3B623B6A002B4A
:108AF000E5D17B687A6A1A603B68FA691A6000BF40
:108B00002C37BD465DF8047B704780B582B000AF5E
:108B100087ED010A3860D7ED017AF5EEC07AF1EE03
:108B200010FA0ADB97ED010A0DF0FEFBF0EE407A39
:108B30003B68C3ED007A002305E03B684FF000027C
:108B40001A604FF0FF3318460837BD4680BD80B528
:108B500088B000AFF860B9607A604FF00003FB6145
:108B6000BB689B08BB6146E0FB681A1DFA601B6886
:108B70007B6197ED057AD7ED057A67EE277A97ED59
:108B8000077A77EE277AC7ED077AFB681A1DFA6035
:108B90001B687B6197ED057AD7ED057A67EE277A3A
:108BA00097ED077A77EE277AC7ED077AFB681A1DEB
:108BB000FA601B687B6197ED057AD7ED057A67EE61
:108BC000277A97ED077A77EE277AC7ED077AFB6861
:108BD0001A1DFA601B687B6197ED057AD7ED057A5F
:108BE00067EE277A97ED077A77EE277AC7ED077A4F
:108BF000BB69013BBB61BB69002BB5D1BB6803F00E
:108C00000303BB6113E0FB681A1DFA601B687B61FC
:108C100097ED057AD7ED057A67EE277A97ED077A13
:108C200077EE277AC7ED077ABB69013BBB61BB6969
:108C3000002BE8D1BB6807EE903AF8EE677A97ED23
:108C4000077AC7EE276A7868B0EE660AFFF75DFF1D
:108C500000BF2037BD4680BD80B582B000AF87ED34
:108C6000010A3860D7ED017AF5EEC07AF1EE10FA1C
:108C70000ADB97ED010A0DF057FBF0EE407A3B68F6
:108C8000C3ED007A002305E03B684FF000021A6054
:108C90004FF0FF3318460837BD4680BD80B58CB015
:108CA00000AFF860B9607A604FF00003FB624FF0EC
:108CB0000003BB62BB68012B04D17B684FF000024C
:108CC0001A60D0E0BB689B087B6266E0FB681A1DF7
:108CD000FA601B687B6197ED0B7AD7ED057A77EE2A
:108CE000277AC7ED0B7A97ED057AD7ED057A67EE0F
:108CF000277A97ED0A7A77EE277AC7ED0A7AFB682A
:108D00001A1DFA601B687B6197ED0B7AD7ED057A27
:108D100077EE277AC7ED0B7A97ED057AD7ED057ACE
:108D200067EE277A97ED0A7A77EE277AC7ED0A7A07
:108D3000FB681A1DFA601B687B6197ED0B7AD7ED13
:108D4000057A77EE277AC7ED0B7A97ED057AD7ED9E
:108D5000057A67EE277A97ED0A7A77EE277AC7EDDC
:108D60000A7AFB681A1DFA601B687B6197ED0B7A23
:108D7000D7ED057A77EE277AC7ED0B7A97ED057A6E
:108D8000D7ED057A67EE277A97ED0A7A77EE277A9C
:108D9000C7ED0A7A7B6A013B7B627B6A002B95D127
:108DA000BB6803F003037B621BE0FB681A1DFA60DB
:108DB0001B687B6197ED0B7AD7ED057A77EE277A02
:108DC000C7ED0B7A97ED057AD7ED057A67EE277A2E
:108DD00097ED0A7A77EE277AC7ED0A7A7B6A013B2C
:108DE0007B627B6A002BE0D1BB6807EE903AF8EE1D
:108DF000677AB7EE007A37EEC77AD7ED0A6AC6EE21
:108E0000877AC7ED087ABB6807EE903AB8EE677AC2
:108E1000D7ED0B6AC6EE877AC7ED077A97ED077A2A
:108E2000D7ED077A27EE277ABB6807EE903AB8EEBF
:108E3000676ABB6807EE903AF8EE677AF7EE006A69
:108E400077EEE66AC6EE267A67EE277AC7ED067AEF
:108E500097ED087AD7ED067A77EE677A7868B0EE04
:108E6000670AFFF7F9FE3037BD4680BD80B48DB08C
:108E700000AFF860B9607A604FF00003FB624FF01A
:108E80000003BB62BB68012B04D17B684FF000027A
:108E90001A60CEE0BB689B087B6266E0FB681A1D27
:108EA000FA601B687B6197ED0B7AD7ED057A77EE58
:108EB000277AC7ED0B7A97ED057AD7ED057A67EE3D
:108EC000277A97ED0A7A77EE277AC7ED0A7AFB6858
:108ED0001A1DFA601B687B6197ED0B7AD7ED057A56
:108EE00077EE277AC7ED0B7A97ED057AD7ED057AFD
:108EF00067EE277A97ED0A7A77EE277AC7ED0A7A36
:108F0000FB681A1DFA601B687B6197ED0B7AD7ED41
:108F1000057A77EE277AC7ED0B7A97ED057AD7EDCC
:108F2000057A67EE277A97ED0A7A77EE277AC7ED0A
:108F30000A7AFB681A1DFA601B687B6197ED0B7A51
:108F4000D7ED057A77EE277AC7ED0B7A97ED057A9C
:108F5000D7ED057A67EE277A97ED0A7A77EE277ACA
:108F6000C7ED0A7A7B6A013B7B627B6A002B95D155
:108F7000BB6803F003037B621BE0FB681A1DFA6009
:108F80001B687B6197ED0B7AD7ED057A77EE277A30
:108F9000C7ED0B7A97ED057AD7ED057A67EE277A5C
:108FA00097ED0A7A77EE277AC7ED0A7A7B6A013B5A
:108FB0007B627B6A002BE0D1BB6807EE903AF8EE4B
:108FC000677AB7EE007A37EEC77AD7ED0A6AC6EE4F
:108FD000877AC7ED087ABB6807EE903AB8EE677AF1
:108FE000D7ED0B6AC6EE877AC7ED077A97ED077A59
:108FF000D7ED077A27EE277ABB6807EE903AB8EEEE
:10900000676ABB6807EE903AF8EE677AF7EE006A97
:1090100077EEE66AC6EE267A67EE277AC7ED067A1D
:1090200097ED087AD7ED067A77EE677A7B68C3ED1D
:10903000007A3437BD465DF8047B704780B5A0B038
:1090400000AF786039607B681B88BB66BB6E9B0095
:109050003A6813447B677B685B683B673B687B6669
:109060007B6F3B66BB6E5B08BB66BB6E9B003A6862
:109070001344FB67BB6E9B007A6F1344BB67BB6EE8
:109080009B08FB66B6E13B681B68BB633B685B689B
:10909000FB633B689B683B643B68DB687B647B6F7E
:1090A0001B68BB627B6F5B68FB627B6F9B683B638B
:1090B0007B6FDB687B63FB6F1B68BB61FB6F5B686F
:1090C000FB61FB6F9B683B62FB6FDB687B62BB6F86
:1090D0001B68BB60BB6F5B68FB60BB6F9B683B61E1
:1090E000BB6FDB687B6197ED0E7AD7ED0A7A3B6840
:1090F0001A1D3A6077EE277AC3ED007A97ED0F7A62
:10910000D7ED0B7A3B681A1D3A6077EE277AC3EDEC
:10911000007A97ED107AD7ED0C7A3B681A1D3A6009
:1091200077EE277AC3ED007A97ED117AD7ED0D7AB5
:109130003B681A1D3A6077EE277AC3ED007A97ED07
:109140000E7AD7ED0A7A77EE677AC7ED0A7A97ED4D
:109150000F7AD7ED0B7A77EE677AC7ED0B7A97ED3A
:10916000107AD7ED0C7A77EE677AC7ED0C7A97ED27
:10917000117AD7ED0D7A77EE677AC7ED0D7A97ED14
:10918000067AD7ED027AFB6F1A1DFA6777EE277A17
:10919000C3ED007A97ED077AD7ED037AFB6F1A1DBE
:1091A000FA6777EE277AC3ED007A97ED087AD7ED64
:1091B000047AFB6F1A1DFA6777EE277AC3ED007AFF
:1091C00097ED097AD7ED057AFB6F1A1DFA6777EEEE
:1091D000277AC3ED007A97ED027AD7ED067A77EE1B
:1091E000677AC7ED027A97ED037AD7ED077A77EEC3
:1091F000677AC7ED037A97ED047AD7ED087A77EEB0
:10920000677AC7ED047A97ED057AD7ED097A77EE9C
:10921000677AC7ED057A3B6F1A1D3A671B68FB65D5
:109220003B6F1A1D3A671B68BB65D7ED0A7A97ED4D
:10923000177A67EE277AC7ED157AD7ED0B7A97ED97
:10924000167A67EE277AC7ED147AD7ED0B7A97ED89
:10925000177A67EE277AC7ED137AD7ED0A7A97ED7A
:10926000167A67EE277AC7ED127A7B6F1A1D7A6736
:1092700097ED157AD7ED147A77EE277AC3ED007A59
:109280007B6F1A1D7A6797ED137AD7ED127A77EE16
:10929000677AC3ED007AD7ED027A97ED167A67EE1A
:1092A000277AC7ED157AD7ED037A97ED177A67EE2F
:1092B000277AC7ED147AD7ED037A97ED167A67EE21
:1092C000277AC7ED137AD7ED027A97ED177A67EE12
:1092D000277AC7ED127ABB6F1A1DBA6797ED157A18
:1092E000D7ED147A77EE677AC3ED007ABB6F1A1D5B
:1092F000BA6797ED137AD7ED127A77EE277AC3ED36
:10930000007A3B6F1A1D3A671B68FB653B6F1A1D9D
:109310003A671B68BB65D7ED0C7A97ED177A67EE55
:10932000277AC7ED157AD7ED0D7A97ED167A67EEA5
:10933000277AC7ED147AD7ED0D7A97ED177A67EE95
:10934000277AC7ED137AD7ED0C7A97ED167A67EE88
:10935000277AC7ED127A7B6F1A1D7A6797ED157A17
:10936000D7ED147A77EE277AC3ED007A7B6F1A1D5A
:109370007A6797ED137AD7ED127A77EE677AC3EDB5
:10938000007AD7ED047A97ED167A67EE277AC7ED63
:10939000157AD7ED057A97ED177A67EE277AC7ED3C
:1093A000147AD7ED057A97ED167A67EE277AC7ED2E
:1093B000137AD7ED047A97ED177A67EE277AC7ED1F
:1093C000127ABB6F1A1DBA6797ED157AD7ED147A2A
:1093D00077EE677AC3ED007ABB6F1A1DBA6797ED17
:1093E000137AD7ED127A77EE277AC3ED007AFB6E07
:1093F000013BFB66FB6E002B7FF445AEBB6E99B262
:109400007B685A680223786E00F0DAFEBB6E99B270
:109410007B685A680223386E00F0D2FE00BF8037A6
:10942000BD4680BD80B5ACB000AF786039607B6868
:109430001B885B089BB2C7F88030D7F880309B0050
:109440003A681344C7F89030D7F880309B00D7F8BB
:1094500090201344C7F88C30D7F880309B00D7F8A1
:109460008C201344C7F888303B68FB67D7F89030EE
:10947000BB67D7F88C307B67D7F888303B67D7F865
:109480009030043BC7F8AC30D7F88C30043BC7F8B9
:10949000A830D7F88830043BC7F8A430D7F880301C
:1094A0009B00D7F8A4201344C7F8A0307B685B6802
:1094B000C7F89430D7F89430C7F89830D7F8983078
:1094C000C7F89C30D7F880305B08C7F8803002239B
:1094D000FB660423BB6606237B663B6893ED007A3C
:1094E000D7F88C30D3ED007A77EE277AC7ED187A6B
:1094F0003B6893ED007AD7F88C30D3ED007A77EEA5
:10950000677AC7ED177A3B68043393ED007AD7F892
:109510008C300433D3ED007A77EE277AC7ED167AD4
:109520003B68043393ED007AD7F88C300433D3EDE5
:10953000007A77EE677AC7ED157AD7F89030043362
:1095400093ED007AD7ED177A37EE277AD7F888307F
:109550000433D3ED007A77EE677AC7ED0B7AD7F84C
:109560009030D3ED007A97ED157A37EE677AD7F819
:109570008830D3ED007A77EE277AC7ED0C7AD7F8EA
:109580009030D3ED007A97ED187A37EE677AD7F8F6
:109590008830D3ED007A77EE677AC7ED077AD7F88F
:1095A00090300433D3ED007A97ED167A37EE677A70
:1095B000D7F888300433D3ED007A77EE677AC7EDB9
:1095C000087AD7F890300433D3ED007A97ED177A04
:1095D00037EE677AD7F888300433D3ED007A77EE28
:1095E000277AC7ED037AD7F8903093ED007AD7ED5C
:1095F000157A37EE277AD7F88830D3ED007A77EEF0
:10960000677AC7ED047AD7F8903093ED007AD7EDFA
:10961000187A37EE277AD7F88830D3ED007A3B688E
:109620001A1D3A6077EE277AC3ED007AD7F89030AA
:10963000043393ED007AD7ED167A37EE277AD7F810
:1096400088300433D3ED007A3B681A1D3A6077EE18
:10965000277AC3ED007AD7F890301A1DC7F890200A
:10966000FA6A1A60D7F890301A1DC7F890203A6B42
:109670001A60D7F88C301A1DC7F88C20FA691A6066
:10968000D7F88C301A1DC7F88C203A6A1A60D7F8C0
:1096900088301A1DC7F88820FA681A60D7F8883011
:1096A0001A1DC7F888203A691A60FB6E9B00D7F82C
:1096B0009C201344C7F89C30BB6E9B00D7F89820C1
:1096C0001344C7F898307B6E9B00D7F8942013445E
:1096D000C7F89430D7F88030023B5B08C7F8843075
:1096E0001AE33B6893ED007AD7F88C30D3ED007A1B
:1096F00077EE277AC7ED187A3B6893ED007AD7F8B2
:109700008C30D3ED007A77EE677AC7ED177A3B6835
:10971000043393ED007AD7F88C300433D3ED007A1C
:1097200077EE277AC7ED167A3B68043393ED007A1B
:10973000D7F88C300433D3ED007A77EE677AC7ED33
:10974000157AD7F89030043393ED007AD7ED177A75
:1097500037EE277AD7F888300433D3ED007A77EEE6
:10976000677AC7ED0B7AD7F89030D3ED007A97ED92
:10977000157A37EE677AD7F88830D3ED007A77EE2E
:10978000277AC7ED0C7AD7F89030D3ED007A97EDB1
:10979000187A37EE677AD7F88830D3ED007A77EE0B
:1097A000677AC7ED077AD7F890300433D3ED007AA3
:1097B00097ED167A37EE677AD7F888300433D3ED11
:1097C000007A77EE677AC7ED087AD7F890300433DD
:1097D000D3ED007A97ED177A37EE677AD7F88830AD
:1097E0000433D3ED007A77EE277AC7ED037AD7F802
:1097F000903093ED007AD7ED157A37EE277AD7F8C7
:109800008830D3ED007A77EE677AC7ED047AD7F81F
:10981000903093ED007AD7ED187A37EE277AD7F8A3
:109820008830D3ED007A3B681A1D3A6077EE277ACC
:10983000C3ED007AD7F89030043393ED007AD7ED7A
:10984000167A37EE277AD7F888300433D3ED007ACA
:109850003B681A1D3A6077EE277AC3ED007AD7F895
:10986000AC30043B93ED007AD7F8A430043BD3ED41
:10987000007A77EE277AC7ED167AD7F8AC30043B3A
:1098800093ED007AD7F8A430043BD3ED007A77EE5D
:10989000677AC7ED157AD7F8AC3093ED007AD7F830
:1098A000A430D3ED007A77EE277AC7ED187AD7F88F
:1098B000AC3093ED007AD7F8A430D3ED007A77EE90
:1098C000677AC7ED177AD7F8A83093ED007AD7F802
:1098D000A030D3ED007A37EE677AD7ED157A77EEC0
:1098E000277AC7ED0D7AD7F8AC3093ED007AD7F828
:1098F000A430D3ED007A37EE677AD7F8A830043B6E
:10990000D3ED007A37EE677AD7F8A030043BD3ED79
:10991000007A77EE277AC7ED0E7AD7F8A830043BA5
:10992000D3ED007A97ED167A37EE677AD7F8A03044
:10993000043BD3ED007A77EE677AC7ED097AD7F862
:10994000A830D3ED007A97ED187A37EE677AD7F81A
:10995000A030D3ED007A77EE677AC7ED0A7AD7F8B0
:10996000A83093ED007AD7F8A030D3ED007A37EE27
:10997000677AD7ED157A77EE677AC7ED057AD7F86B
:10998000A030043B93ED007AD7F8A830043BD3ED28
:10999000007A37EE677AD7ED177A77EE677AC7EDF8
:1099A000067AD7F8A83093ED007AD7ED187A37EE1B
:1099B000277AD7F8A030D3ED007AD7F8AC301A1F49
:1099C000C7F8AC2077EE277AC3ED007AD7F8A83035
:1099D000043B93ED007AD7ED167A37EE277AD7F865
:1099E000A030043BD3ED007AD7F8AC301A1FC7F88B
:1099F000AC2077EE277AC3ED007AD7F89C301A1D99
:109A0000C7F89C201B683B65D7F89C301A1DC7F827
:109A10009C201B68FB64D7ED0B7A97ED147A67EEF8
:109A2000277AC7ED127AD7ED0C7A97ED137A67EEA5
:109A3000277AC7ED117AD7ED0C7A97ED147A67EE95
:109A4000277AC7ED107AD7ED0B7A97ED137A67EE88
:109A5000277AC7ED0F7AD7F890301A1DC7F89020F3
:109A600097ED127AD7ED117A77EE277AC3ED007A67
:109A7000D7F890301A1DC7F8902097ED107AD7EDDF
:109A80000F7A77EE677AC3ED007AD7ED0E7A97ED0D
:109A9000137A67EE277AC7ED127AD7ED0D7A97ED34
:109AA000147A67EE277AC7ED117AD7ED0D7A97ED24
:109AB000137A67EE277AC7ED107AD7ED0E7A97ED15
:109AC000147A67EE277AC7ED0F7AD7F8A8301A1FF5
:109AD000C7F8A82097ED127AD7ED117A77EE677A5A
:109AE000C3ED007AD7F8A8301A1FC7F8A82097ED61
:109AF000107AD7ED0F7A77EE277AC3ED007AD7F890
:109B000098301B683B65D7F898305B68FB64BB6E88
:109B10009B00D7F898201344C7F89830D7ED077A00
:109B200097ED147A67EE277AC7ED127AD7ED087AA7
:109B300097ED137A67EE277AC7ED117AD7ED087A99
:109B400097ED147A67EE277AC7ED107AD7ED077A8A
:109B500097ED137A67EE277AC7ED0F7AD7F88C3036
:109B60001A1DC7F88C2097ED127AD7ED117A77EE8F
:109B7000277AC3ED007AD7F88C301A1DC7F88C20ED
:109B800097ED107AD7ED0F7A77EE677AC3ED007A0A
:109B9000D7ED0A7AF1EE677A97ED147A67EE277AB5
:109BA000C7ED127AD7ED097A97ED137A67EE277A27
:109BB000C7ED117AD7ED097A97ED147A67EE277A17
:109BC000C7ED107AD7ED0A7A97ED137A67EE277A08
:109BD000C7ED0F7AD7F8A4301A1FC7F8A42097ED65
:109BE000127AD7ED117A77EE677AC3ED007AD7F85B
:109BF000A4301A1FC7F8A42097ED0F7AD7ED107A7A
:109C000077EE677AC3ED007AD7F894301B683B652E
:109C1000D7F894305B68FB647B6E9B00D7F8942088
:109C20001344C7F89430D7ED037A97ED147A67EEB2
:109C3000277AC7ED127AD7ED047A97ED137A67EE9B
:109C4000277AC7ED117AD7ED047A97ED147A67EE8B
:109C5000277AC7ED107AD7ED037A97ED137A67EE7E
:109C6000277AC7ED0F7AD7F888301A1DC7F88820F1
:109C700097ED127AD7ED117A77EE277AC3ED007A55
:109C8000D7F888301A1DC7F8882097ED107AD7EDDD
:109C90000F7A77EE677AC3ED007AD7ED067A97ED03
:109CA000137A67EE277AC7ED127AD7ED057A97ED2A
:109CB000147A67EE277AC7ED117AD7ED057A97ED1A
:109CC000137A67EE277AC7ED107AD7ED067A97ED0B
:109CD000147A67EE277AC7ED0F7AD7F8A0301A1FEB
:109CE000C7F8A02097ED127AD7ED117A77EE677A50
:109CF000C3ED007AD7F8A0301A1FC7F8A02097ED5F
:109D0000107AD7ED0F7A77EE277AC3ED007AD7F87D
:109D10008430013BC7F88430D7F88430002B7FF4BF
:109D2000E0AC3B6893ED007AD7F88C30D3ED007A45
:109D300077EE277AC7ED187A3B6893ED007AD7F86B
:109D40008C30D3ED007A77EE677AC7ED177A3B68EF
:109D5000043393ED007AD7F88C300433D3ED007AD6
:109D600077EE277AC7ED167A3B68043393ED007AD5
:109D7000D7F88C300433D3ED007A77EE677AC7EDED
:109D8000157AD7F89030043393ED007AD7ED177A2F
:109D900037EE277AD7F888300433D3ED007A77EEA0
:109DA000677AC7ED0B7AD7F89030D3ED007A97ED4C
:109DB000157A37EE677AD7F88830D3ED007A77EEE8
:109DC000277AC7ED0C7AD7F89030D3ED007A97ED6B
:109DD000187A37EE677AD7F88830D3ED007A77EEC5
:109DE000677AC7ED077AD7F890300433D3ED007A5D
:109DF00097ED167A37EE677AD7F888300433D3EDCB
:109E0000007A77EE677AC7ED087AD7F89030043396
:109E1000D3ED007A97ED177A37EE677AD7F8883066
:109E20000433D3ED007A77EE277AC7ED037AD7F8BB
:109E3000903093ED007AD7ED157A37EE277AD7F880
:109E40008830D3ED007A77EE677AC7ED047AD7F8D9
:109E5000903093ED007AD7ED187A37EE277AD7F85D
:109E60008830D3ED007A3B681A1D3A6077EE277A86
:109E7000C3ED007AD7F89030043393ED007AD7ED34
:109E8000167A37EE277AD7F888300433D3ED007A84
:109E90003B681A1D3A6077EE277AC3ED007AD7F84F
:109EA0009C301B683B65D7F89C305B68FB64D7ED42
:109EB0000B7A97ED147A67EE277AC7ED127AD7ED11
:109EC0000C7A97ED137A67EE277AC7ED117AD7ED02
:109ED0000C7A97ED147A67EE277AC7ED107AD7EDF2
:109EE0000B7A97ED137A67EE277AC7ED0F7AD7F8DA
:109EF00090301A1DC7F8902097ED127AD7ED117A9D
:109F000077EE277AC3ED007AD7F890301A1DC7F89C
:109F1000902097ED107AD7ED0F7A77EE677AC3ED40
:109F2000007AD7F898301B683B65D7F898305B68A3
:109F3000FB64D7ED077A97ED147A67EE277AC7EDC1
:109F4000127AD7ED087A97ED137A67EE277AC7ED84
:109F5000117AD7ED087A97ED147A67EE277AC7ED74
:109F6000107AD7ED077A97ED137A67EE277AC7ED67
:109F70000F7AD7F88C301A1DC7F88C2097ED127A1B
:109F8000D7ED117A77EE277AC3ED007AD7F88C30C7
:109F90001A1DC7F88C2097ED107AD7ED0F7A77EE5F
:109FA000677AC3ED007AD7F894301B683B65D7F821
:109FB00094305B68FB64D7ED037A97ED147A67EE13
:109FC000277AC7ED127AD7ED047A97ED137A67EE08
:109FD000277AC7ED117AD7ED047A97ED147A67EEF8
:109FE000277AC7ED107AD7ED037A97ED137A67EEEB
:109FF000277AC7ED0F7AD7F888301A1DC7F888205E
:10A0000097ED127AD7ED117A77EE277AC3ED007AC1
:10A01000D7F888301A1DC7F8882097ED107AD7ED49
:10A020000F7A77EE677AC3ED007AD7F8803099B26D
:10A030007B685A680423F86F00F0C2F8D7F88030C4
:10A0400099B27B685A680423B86F00F0B9F8D7F862
:10A05000803099B27B685A680423786F00F0B0F8BA
:10A06000D7F8803099B27B685A680423386F00F0C3
:10A07000A7F800BFB037BD4680BD80B588B000AF3F
:10A08000F860B96011461A460B46FB711346BB7166
:10A09000FB681B887B61FB79012B17D1BB680433FC
:10A0A000BB610023FB610DE0BB69D3ED007AF1EEEB
:10A0B000677ABB69C3ED007ABB690833BB61FB6992
:10A0C0000133FB61FA697B699A42EDD37B69B3F591
:10A0D000807F24D0B3F5807F0BD8202B1FD0202B7E
:10A0E00002D8102B16D028E0402B1DD0802B11D089
:10A0F00023E0B3F5806F0DD0B3F5806F03D8B3F5CF
:10A10000007F11D019E0B3F5006F08D0B3F5805F80
:10A110000AD012E0B968F868FEF790FF0DE0B96860
:10A12000F868FFF77FF908E07B6999B2FB685A6825
:10A130000123B86800F044F800BFBB79002B07D0BA
:10A14000FB689989FB689B681A46B868FEF778F83F
:10A15000FB79012B30D17B6907EE903AB8EE677A34
:10A16000F7EE006AC6EE877AC7ED047ABB68BB617A
:10A170000023FB611CE0BB691A1DBA6193ED007AF4
:10A18000D7ED047A67EE277AC3ED007ABB69D3ED89
:10A19000007AB1EE677AD7ED047A67EE277ABB6969
:10A1A000C3ED007ABB690433BB61FB690133FB611A
:10A1B000FA697B699A42DED300BF2037BD4680BD75
:10A1C00080B4BDB000AFF8607A601A460B467B8160
:10A1D00013463B81094BC7F8DC307B89C7F8E43074
:10A1E000D7F8E430C7F8D830D7F8E430DB08C7F840
:10A1F000E4300023C7F8E83002E000BFF304353F45
:10A20000D7F8E820D7F8E4301344C7F8D430D7F8AB
:10A21000D420D7F8E4301344C7F8D030D7F8D02092
:10A22000D7F8E4301344C7F8CC30D7F8CC20D7F8AF
:10A23000E4301344C7F8C830D7F8C820D7F8E43062
:10A240001344C7F8C430D7F8C420D7F8E430134417
:10A25000C7F8C030D7F8C020D7F8E4301344C7F8A7
:10A26000BC30D7F8E830DB00FA68134493ED007A8D
:10A27000D7F8C830DB00FA681344D3ED007A77EEE4
:10A28000277AC7ED2E7AD7F8E830DB00FA68134456
:10A2900093ED007AD7F8C830DB00FA681344D3EDA9
:10A2A000007A77EE677AC7ED2D7AD7F8D430DB00E5
:10A2B000FA68134493ED007AD7F8C430DB00FA68EB
:10A2C0001344D3ED007A77EE277AC7ED2C7AD7F8CE
:10A2D000D430DB00FA68134493ED007AD7F8C43029
:10A2E000DB00FA681344D3ED007A77EE677AC7EDA6
:10A2F0002B7AD7F8D030DB00FA68134493ED007A5C
:10A30000D7F8C030DB00FA681344D3ED007A77EE5B
:10A31000277AC7ED2A7AD7F8D030DB00FA681344E1
:10A3200093ED007AD7F8C030DB00FA681344D3ED20
:10A33000007A77EE677AC7ED297AD7F8CC30DB0060
:10A34000FA68134493ED007AD7F8BC30DB00FA6862
:10A350001344D3ED007A77EE277AC7ED287AD7F841
:10A36000CC30DB00FA68134493ED007AD7F8BC30A8
:10A37000DB00FA681344D3ED007A77EE677AC7ED15
:10A38000277A97ED2E7AD7ED2A7A77EE677AC7ED9E
:10A39000267A97ED2E7AD7ED2A7A77EE277AC7EDCF
:10A3A0002E7A97ED2C7AD7ED287A77EE677AC7ED7B
:10A3B0002A7A97ED2C7AD7ED287A77EE277AC7EDAF
:10A3C0002C7AD7F8E830DB00FA68134497ED2E7A40
:10A3D000D7ED2C7A77EE277AC3ED007AD7F8C8301C
:10A3E000DB00FA68134497ED2E7AD7ED2C7A77EEDE
:10A3F000677AC3ED007AD7F8E830DB000433FA68F7
:10A40000134493ED007AD7F8C830DB000433FA68C0
:10A410001344D3ED007A77EE277AC7ED2E7AD7F87A
:10A42000E830DB000433FA68134493ED007AD7F880
:10A43000C830DB000433FA681344D3ED007A77EEBA
:10A44000677AC7ED257AD7F8D430DB000433FA6891
:10A45000134493ED007AD7F8C430DB000433FA6874
:10A460001344D3ED007A77EE277AC7ED2C7AD7F82C
:10A47000D430DB000433FA68134493ED007AD7F844
:10A48000C430DB000433FA681344D3ED007A77EE6E
:10A49000677AC7ED247AD7F8D030DB000433FA6846
:10A4A000134493ED007AD7F8C030DB000433FA6828
:10A4B0001344D3ED007A77EE277AC7ED237AD7F8E5
:10A4C000D030DB000433FA68134493ED007AD7F8F8
:10A4D000C030DB000433FA681344D3ED007A77EE22
:10A4E000677AC7ED227AD7F8CC30DB000433FA68FC
:10A4F000134493ED007AD7F8BC30DB000433FA68DC
:10A500001344D3ED007A77EE277AC7ED287AD7F88F
:10A51000CC30DB000433FA68134493ED007AD7F8AB
:10A52000BC30DB000433FA681344D3ED007A77EED5
:10A53000677AC7ED217A97ED2E7AD7ED237A77EEF9
:10A54000677AC7ED207A97ED2E7AD7ED237A77EEEA
:10A55000277AC7ED2E7A97ED2C7AD7ED287A77EE09
:10A56000677AC7ED237A97ED2C7AD7ED287A77EEC4
:10A57000277AC7ED2C7AD7F8E830DB000433FA6885
:10A58000134497ED2E7AD7ED2C7A77EE277AC3ED28
:10A59000007AD7F8C830DB000433FA68134497ED2B
:10A5A0002E7AD7ED2C7A77EE677AC3ED007AD7F85A
:10A5B000D030DB00FA68134497ED267AD7ED237A82
:10A5C00077EE277AC3ED007AD7F8C030DB00FA685F
:10A5D000134497ED267AD7ED237A77EE677AC3EDA9
:10A5E000007AD7F8D030DB000433FA68134497EDD3
:10A5F000207AD7ED2A7A77EE677AC3ED007AD7F81A
:10A60000C030DB000433FA68134497ED207AD7EDAD
:10A610002A7A77EE277AC3ED007A97ED2B7AD7ED79
:10A62000277A77EE677A97ED377A67EE277AC7ED64
:10A630002E7A97ED2B7AD7ED277A77EE277A97ED5A
:10A64000377A67EE277AC7ED2B7A97ED247AD7ED24
:10A65000217A77EE677A97ED377A67EE277AC7ED3A
:10A660002C7A97ED247AD7ED217A77EE277A97ED39
:10A67000377A67EE277AC7ED247A97ED2D7AD7EDF2
:10A680002E7A77EE677AC7ED267A97ED2D7AD7ED99
:10A690002E7A77EE277AC7ED2D7A97ED297AD7EDC6
:10A6A0002B7A77EE677AC7ED277A97ED297AD7ED7F
:10A6B0002B7A77EE277AC7ED297A97ED257AD7EDB1
:10A6C0002C7A77EE677AC7ED207A97ED257AD7ED69
:10A6D0002C7A77EE277AC7ED257A97ED227AD7ED97
:10A6E000247A77EE677AC7ED217A97ED227AD7ED53
:10A6F000247A77EE277AC7ED227AD7F8D430DB00B8
:10A70000FA68134497ED2D7AD7ED227A77EE277AFF
:10A71000C3ED007AD7F8BC30DB00FA68134497ED3C
:10A720002D7AD7ED227A77EE677AC3ED007AD7F8E3
:10A73000C430DB00FA68134497ED267AD7ED217A0E
:10A7400077EE277AC3ED007AD7F8CC30DB00FA68D1
:10A75000134497ED267AD7ED217A77EE677AC3ED29
:10A76000007AD7F8D430DB000433FA68134497ED4D
:10A77000257AD7ED297A77EE677AC3ED007AD7F894
:10A78000BC30DB000433FA68134497ED257AD7ED2B
:10A79000297A77EE277AC3ED007AD7F8C430DB0048
:10A7A0000433FA68134497ED207AD7ED277A77EED1
:10A7B000677AC3ED007AD7F8CC30DB000433FA684F
:10A7C000134497ED207AD7ED277A77EE277AC3EDF9
:10A7D000007AD7F8E820D7F8D8301344C7F8E83023
:10A7E0007B89D7F8E8209A42FFF40AADD7F8E43025
:10A7F000072B40F2E3840023C7F8EC300123C7F8AD
:10A80000E0303B89D7F8EC201344FB67FB6FC7F8B7
:10A81000EC30D7F8EC20FB6F1344BB67BA6FFB6FCB
:10A8200013447B677A6FFB6F13443B673A6FFB6F90
:10A830001344FB66FA6EFB6F1344BB66BA6EFB6F84
:10A8400013447B66D7F8EC30DB007A6813441B684E
:10A850003B66BB6FDB007A6813441B68FB657B6F4C
:10A86000DB007A6813441B68BB653B6FDB007A68CA
:10A8700013441B687B65FB6EDB007A6813441B681E
:10A880003B65BB6EDB007A6813441B68FB647B6E20
:10A89000DB007A6813441B68BB64D7F8EC30DB003C
:10A8A00004337A6813441B687B64BB6FDB0004339A
:10A8B0007A6813441B683B647B6FDB0004337A685F
:10A8C00013441B68FB633B6FDB0004337A6813445B
:10A8D0001B68BB63FB6EDB0004337A6813441B68A0
:10A8E0007B63BB6EDB0004337A6813441B683B63F5
:10A8F0007B6EDB0004337A6813441B68FB62D7F875
:10A90000E030C7F8E830D7F8E820D7F8E43013444F
:10A91000C7F8D430D7F8D420D7F8E4301344C7F8B8
:10A92000D030D7F8D020D7F8E4301344C7F8CC3073
:10A93000D7F8CC20D7F8E4301344C7F8C830D7F89C
:10A94000C820D7F8E4301344C7F8C430D7F8C4207F
:10A95000D7F8E4301344C7F8C030D7F8C020D7F890
:10A96000E4301344C7F8BC30D7F8E830DB00FA68AD
:10A97000134493ED007AD7F8C830DB00FA6813442B
:10A98000D3ED007A77EE277AC7ED2E7AD7F8E83044
:10A99000DB00FA68134493ED007AD7F8C830DB0087
:10A9A000FA681344D3ED007A77EE677AC7ED2D7A13
:10A9B000D7F8D430DB00FA68134493ED007AD7F867
:10A9C000C430DB00FA681344D3ED007A77EE277ABF
:10A9D000C7ED2C7AD7F8D430DB00FA68134493ED36
:10A9E000007AD7F8C430DB00FA681344D3ED007A5C
:10A9F00077EE677AC7ED2B7AD7F8D030DB00FA68AC
:10AA0000134493ED007AD7F8C030DB00FA681344A2
:10AA1000D3ED007A77EE277AC7ED2A7AD7F8D030CF
:10AA2000DB00FA68134493ED007AD7F8C030DB00FE
:10AA3000FA681344D3ED007A77EE677AC7ED297A86
:10AA4000D7F8CC30DB00FA68134493ED007AD7F8DE
:10AA5000BC30DB00FA681344D3ED007A77EE277A36
:10AA6000C7ED287AD7F8CC30DB00FA68134493EDB1
:10AA7000007AD7F8BC30DB00FA681344D3ED007AD3
:10AA800077EE677AC7ED277A97ED2E7AD7ED2A7A97
:10AA900077EE677AC7ED267A97ED2E7AD7ED2A7A88
:10AAA00077EE277AC7ED2E7A97ED2C7AD7ED287AB4
:10AAB00077EE677AC7ED2A7A97ED2C7AD7ED287A68
:10AAC00077EE277AC7ED2C7AD7F8E830DB00FA6802
:10AAD000134497ED2E7AD7ED2C7A77EE277AC3EDD3
:10AAE000007A97ED2E7AD7ED2C7A77EE677AC7ED5C
:10AAF0002C7AD7F8E830DB000433FA68134493ED7E
:10AB0000007AD7F8C830DB000433FA681344D3ED79
:10AB1000007A77EE277AC7ED0A7AD7F8E830DB00BB
:10AB20000433FA68134493ED007AD7F8C830DB0099
:10AB30000433FA681344D3ED007A77EE677AC7EDF1
:10AB4000257AD7F8D430DB000433FA68134493ED48
:10AB5000007AD7F8C430DB000433FA681344D3ED2D
:10AB6000007A77EE277AC7ED097AD7F8D430DB0080
:10AB70000433FA68134493ED007AD7F8C430DB004D
:10AB80000433FA681344D3ED007A77EE677AC7EDA1
:10AB9000247AD7F8D030DB000433FA68134493EDFD
:10ABA000007AD7F8C030DB000433FA681344D3EDE1
:10ABB000007A77EE277AC7ED237AD7F8D030DB001A
:10ABC0000433FA68134493ED007AD7F8C030DB0001
:10ABD0000433FA681344D3ED007A77EE677AC7ED51
:10ABE000227AD7F8CC30DB000433FA68134493EDB3
:10ABF000007AD7F8BC30DB000433FA681344D3ED95
:10AC0000007A77EE277AC7ED087AD7F8CC30DB00E8
:10AC10000433FA68134493ED007AD7F8BC30DB00B4
:10AC20000433FA681344D3ED007A77EE677AC7ED00
:10AC3000217A97ED0A7AD7ED237A77EE677AC7ED16
:10AC4000207A97ED0A7AD7ED237A77EE277AC7ED47
:10AC50000A7A97ED097AD7ED087A77EE677AC7ED29
:10AC6000237A97ED097AD7ED087A77EE277AC7ED40
:10AC7000097A97ED267AD7ED237A77EE277AC7ED12
:10AC80002E7A97ED267AD7ED237A77EE677AC7ED9D
:10AC9000267AD7F8E830DB000433FA68134497EDDE
:10ACA0000A7AD7ED097A77EE277AC3ED007A97ED25
:10ACB0000A7AD7ED097A77EE677AC7ED097A97EDC8
:10ACC000207AD7ED2A7A77EE677AC7ED0A7A97ED80
:10ACD000207AD7ED2A7A77EE277AC7ED207A97ED9A
:10ACE000157AD7ED2C7A67EE277AC7ED077A97EDBC
:10ACF0000E7AD7ED097A67EE277AC7ED067A97EDD7
:10AD0000157AD7ED097A67EE277AC7ED057A97EDC0
:10AD10000E7AD7ED2C7A67EE277AC7ED047AD7F84A
:10AD2000C830DB00FA68134497ED077AD7ED067A4E
:10AD300077EE277AC3ED007AD7F8C830DB0004330A
:10AD4000FA68134497ED057AD7ED047A77EE677ABF
:10AD5000C3ED007A97ED177AD7ED2E7A67EE277A52
:10AD6000C7ED077A97ED107AD7ED0A7A67EE277A62
:10AD7000C7ED067A97ED177AD7ED0A7A67EE277A4C
:10AD8000C7ED057A97ED107AD7ED2E7A67EE277A20
:10AD9000C7ED047AD7F8D030DB00FA68134497ED9A
:10ADA000077AD7ED067A77EE277AC3ED007AD7F8DF
:10ADB000D030DB000433FA68134497ED057AD7ED01
:10ADC000047A77EE677AC3ED007A97ED137AD7EDC0
:10ADD000267A67EE277AC7ED077A97ED0C7AD7EDDA
:10ADE000207A67EE277AC7ED067A97ED137AD7EDCA
:10ADF000207A67EE277AC7ED057A97ED0C7AD7EDC2
:10AE0000267A67EE277AC7ED047AD7F8C030DB00E0
:10AE1000FA68134497ED077AD7ED067A77EE277A2A
:10AE2000C3ED007AD7F8C030DB000433FA6813446E
:10AE300097ED057AD7ED047A77EE677AC3ED007A5D
:10AE400097ED2B7AD7ED277A77EE677A97ED377AF9
:10AE500067EE277AC7ED2E7A97ED2B7AD7ED277A12
:10AE600077EE277A97ED377A67EE277AC7ED2B7A58
:10AE700097ED247AD7ED217A77EE677A97ED377AD6
:10AE800067EE277AC7ED0A7A97ED247AD7ED217A13
:10AE900077EE277A97ED377A67EE277AC7ED247A2F
:10AEA00097ED2D7AD7ED2E7A77EE677AC7ED267A71
:10AEB00097ED2D7AD7ED2E7A77EE277AC7ED2D7A9A
:10AEC00097ED297AD7ED2B7A77EE677AC7ED277A57
:10AED00097ED297AD7ED2B7A77EE277AC7ED297A85
:10AEE00097ED257AD7ED0A7A77EE677AC7ED207A63
:10AEF00097ED257AD7ED0A7A77EE277AC7ED257A8E
:10AF000097ED227AD7ED247A77EE677AC7ED217A2A
:10AF100097ED227AD7ED247A77EE277AC7ED227A59
:10AF200097ED2D7AD7ED227A77EE277AC7ED2E7A34
:10AF300097ED2D7AD7ED227A77EE677AC7ED2D7AE5
:10AF400097ED267AD7ED217A77EE277AC7ED2B7A1F
:10AF500097ED267AD7ED217A77EE677AC7ED267AD4
:10AF600097ED257AD7ED297A77EE677AC7ED0A7AD9
:10AF700097ED257AD7ED297A77EE277AC7ED257AEE
:10AF800097ED207AD7ED277A77EE677AC7ED247AA6
:10AF900097ED207AD7ED277A77EE277AC7ED207ADA
:10AFA00097ED187AD7ED2E7A67EE277AC7ED077AF4
:10AFB00097ED117AD7ED0A7A67EE277AC7ED067A10
:10AFC00097ED187AD7ED0A7A67EE277AC7ED057AFA
:10AFD00097ED117AD7ED2E7A67EE277AC7ED047ACE
:10AFE000D7F8D430DB00FA68134497ED077AD7ED31
:10AFF000067A77EE277AC3ED007AD7F8D430DB00F3
:10B000000433FA68134497ED057AD7ED047A77EEA6
:10B01000677AC3ED007A97ED127AD7ED2D7A67EE55
:10B02000277AC7ED077A97ED0B7AD7ED257A67EE89
:10B03000277AC7ED067A97ED127AD7ED257A67EE73
:10B04000277AC7ED057A97ED0B7AD7ED2D7A67EE63
:10B05000277AC7ED047AD7F8BC30DB00FA681344CE
:10B0600097ED077AD7ED067A77EE277AC3ED007A67
:10B07000D7F8BC30DB000433FA68134497ED057A47
:10B08000D7ED047A77EE677AC3ED007A97ED147AFC
:10B09000D7ED2B7A67EE277AC7ED077A97ED0D7A11
:10B0A000D7ED247A67EE277AC7ED067A97ED147A02
:10B0B000D7ED247A67EE277AC7ED057A97ED0D7AFA
:10B0C000D7ED2B7A67EE277AC7ED047AD7F8C4302C
:10B0D000DB00FA68134497ED077AD7ED067A77EE2E
:10B0E000277AC3ED007AD7F8C430DB000433FA685E
:10B0F000134497ED057AD7ED047A77EE677AC3EDBE
:10B10000007A97ED167AD7ED267A67EE277AC7EDA3
:10B11000077A97ED0F7AD7ED207A67EE277AC7ED99
:10B12000067A97ED167AD7ED207A67EE277AC7ED83
:10B13000057A97ED0F7AD7ED267A67EE277AC7ED75
:10B14000047AD7F8CC30DB00FA68134497ED077A1D
:10B15000D7ED067A77EE277AC3ED007AD7F8CC30B0
:10B16000DB000433FA68134497ED057AD7ED047ACF
:10B1700077EE677AC3ED007AD7F8E820D7F8D830B1
:10B180001344C7F8E8307B89D7F8E8209A42FFF4E7
:10B19000BAABD7F8E0300133C7F8E030D7F8E02099
:10B1A000D7F8E4309A42FFF42CAB3B89DB003B81BB
:10B1B000D7F8E430072B3FF613A800E000BF00BF2C
:10B1C000F437BD465DF8047B704700BF80B582B0A0
:10B1D00000AF03460A46FB711346BB71FB791B01A6
:10B1E0005AB297F9063013435BB2DBB2194601201D
:10B1F00000F032F800BF0837BD4680BD80B584B08E
:10B2000000AF0346FB71FB793B7300221021094814
:10B2100004F0D8FB07F10C0132230122064806F0A6
:10B2200029FA01221021034804F0CCFB00BF10379B
:10B23000BD4680BD00000240A4C7012080B582B099
:10B2400000AF0346FB71FB791946032000F004F8B8
:10B2500000BF0837BD4680BD80B584B000AF03464F
:10B260000A46FB711346BB71FB7943F05003DBB216
:10B270003B7300237B73BB79BB7300221021094809
:10B2800004F0A0FB07F10C0164230322064806F03A
:10B29000F1F901221021034804F094FB00BF10379C
:10B2A000BD4680BD00000240A4C7012080B582B029
:10B2B00000AF0346FB71FB7919460220FFF7CCFF74
:10B2C00000BF0837BD4680BD80B582B000AF002307
:10B2D0007B6009E00821094804F05CFB0346002B71
:10B2E00007D07B6801337B607B68054A9342F1D9C4
:10B2F00000E000BF00BF0837BD4680BD000002402F
:10B30000FF59620280B582B000AFFFF7DDFF002079
:10B3100000F020F80346FB71FB79DBB21B09DBB2BE
:10B3200018460837BD4680BD80B584B002AFFF2304
:10B33000FB710023BB71BA1DF91D32230093012359
:10B34000034806F0FDFABB7918460837BD4680BDB4
:10B35000A4C7012080B584B000AF0346FB71FB7920
:10B3600043F01003DBB23B7300237B7300221021F8
:10B370000D4804F027FB07F10C01322302220B4891
:10B3800006F078F90A2000F0A5FDFFF7CDFF03468F
:10B39000FB7301221021044804F014FBFB7B1846C8
:10B3A0001037BD4680BD00BF00000240A4C7012089
:10B3B00080B582B000AF0123FB7150233B71FB7954
:10B3C0005B005BB243F004035BB2DBB27B71002233
:10B3D0001021094804F0F6FA391D322302220748E9
:10B3E00006F048F901221021034804F0EBFA00BFEF
:10B3F0000837BD4680BD00BF00000240A4C7012041
:10B4000080B400AFBFF34F8F054BDB6803F4E062FD
:10B410000349044B1343CB60BFF34F8F00BFFDE7DD
:10B4200000ED00E00400FA0580B52DED108BA6B00C
:10B4300022AFF860B9607A4B5B78002B08D0784B6C
:10B4400000221A704FF47A7000F09CFDFFF7D8FFCD
:10B45000734B1B78002B00F0DC80BB68D3ED0A7ABD
:10B460009FED707A67EE877AB7EEE76ABB68D3ED37
:10B470000B7A9FED6C7A67EE877AB7EEE75ABB6876
:10B48000D3ED0C7AB7EEE74ABB68D3ED007A9FEDB7
:10B49000657A67EE877AB7EEE73ABB68D3ED017A53
:10B4A0009FED607A67EE877AB7EEE72ABB68D3ED47
:10B4B000067A9FED5C7A67EE877AB7EEE71ABB688B
:10B4C000D3ED027A9FED577A67EE877AB7EEE70AF7
:10B4D000BB68D3ED047A9FED537A67EE877AB7EEB7
:10B4E000E78ABB68D3ED077A9FED4E7A67EE877ADD
:10B4F000B7EEE79ABB68D3ED087A9FED4A7A67EE1C
:10B50000877AB7EEE7AABB68D3ED097A9FED457A53
:10B5100067EE877AB7EEE7BA434BD3ED0D7A9FED2E
:10B52000417A67EE877AB7EEE7CA3F4BD3ED0E7AE2
:10B530009FED3C7A67EE877AB7EEE7DA3A4BD3EDC8
:10B540000F7A9FED387A67EE877AB7EEE7EA364BE7
:10B55000D3ED217A9FED337A67EE877AB7EEE7FA7B
:10B56000314BD3ED227A9FED2F7A67EE877AB7EED3
:10B57000E77A87ED007B2C4B93ED237ADFED297A78
:10B5800067EE277AB7EEE77A8DED207B97ED007BAB
:10B590008DED1E7B8DED1CFB8DED1AEB8DED18DB1B
:10B5A0008DED16CB8DED14BB8DED12AB8DED109B9B
:10B5B0008DED0E8B8DED0C0B8DED0A1B8DED082B9B
:10B5C0008DED063B8DED044B8DED025B8DED006B3B
:10B5D000164A8021164803F0E9F81548FCF790FE5A
:10B5E0000346802B04D81248FCF78AFE034600E08D
:10B5F00080230B4AC2F82432094BD3F824329BB281
:10B600001A460B49F86807F09BF80346002B00D157
:10B6100000BF00BF1037BD46BDEC108B80BD00BF22
:10B62000E044012000007A44E8800020686D0108B1
:10B630008045012080B586B000AFF860B9607A60BF
:10B64000FB681B78002B11D0B968F8680AF0D5FCAC
:10B6500078617B681A46B96878690AF0BCFC0346D1
:10B66000002B01D1012302E0002300E00023184653
:10B670001837BD4680BD80B485B000AF78603960B2
:10B680004FF00003FB600023BB600EE0BB689B0033
:10B690007A681344D3ED007A97ED037A77EE277A30
:10B6A000C7ED037ABB680133BB60BA683B689A4256
:10B6B000ECDB3B6807EE903AF8EEE77A97ED037A19
:10B6C000C7EE276AF0EE667AB0EE670A1437BD4619
:10B6D0005DF8047B704780B588B000AFF860B96052
:10B6E0007A60B968F868FFF7C6FF87ED050A4FF082
:10B6F0000003FB610023BB6125E0BB699B00FA6886
:10B70000134493ED007AD7ED057A77EE677AB7EEBA
:10B71000E77A7B6806EE903AB8EEE66BB0EE461B31
:10B72000B0EE470B0AF084FCB0EE406BD7ED077A21
:10B73000B7EEE77A36EE077BF7EEC77BC7ED077A01
:10B74000BB690133BB61BA69BB689A42D5DBBB6890
:10B7500007EE903AF8EEE77A97ED077AC7EE276A98
:10B76000F0EE667AB0EE670A2037BD4680BD80B540
:10B7700086B000AF7860396039687868FFF77BFF82
:10B7800087ED030A4FF000037B6100233B611AE061
:10B790003B699B007A68134493ED007AD7ED037AF6
:10B7A00077EE677AC7ED027A97ED027AD7ED027AE3
:10B7B00067EE277A97ED057A77EE277AC7ED057A57
:10B7C0003B6901333B613A693B689A42E0DB3B6885
:10B7D000013B07EE903AF8EEE77A97ED057AC7EE6F
:10B7E000276AF0EE667AB0EE670A1837BD4680BD6C
:10B7F00080B582B000AF7860396039687868FFF74B
:10B80000B6FFF0EE407AB7EEE77AB0EE470B0AF0FB
:10B810003FFDB0EE407BF7EEC77BB0EE670A08371E
:10B82000BD4680BD80B52DED028B86B000AF78603F
:10B830003960032239687868FFF74DFF87ED050A04
:10B8400039687868FFF7D4FF87ED040A3B68013B4D
:10B85000FB603B68FA6802FB03F307EE903AB8EE30
:10B86000E77BB0EE470B0AF013FDB0EE405BFB68E0
:10B8700007EE903AB8EEE77B85EE076BD7ED057AD9
:10B88000B7EEE77A26EE078BD7ED047AB7EEE77AC4
:10B89000B0EE081BB0EE470B0AF0CAFBB0EE406BEF
:10B8A00088EE067BF7EEC77BC7ED027ABB6807EE32
:10B8B000903AB0EE670A1837BD46BDEC028B80BDEA
:10B8C00080B586B000AF7860396002223968786848
:10B8D000FFF701FF87ED050A042239687868FFF752
:10B8E000FAFE87ED040A97ED057AD7ED057A27EE83
:10B8F000277AD7ED046AC6EE877AB0EE087A77EE3B
:10B90000C77AC7ED037AFB6807EE903AB0EE670A94
:10B910001837BD4680BD000080B58EB000AFF8601E
:10B92000B9601346FB71BB681B68002B00F0F38005
:10B9300043F698237B627B6A07EE903AF8EEE76A5B
:10B940007B4B1B6807EE903AB8EE677AC6EE877AB3
:10B95000C7ED087A4FF00003FB61BB681B6807EE78
:10B96000903AF8EEE76A97ED087AC6EE877AC7ED67
:10B97000067ABB685B6807EE903AF8EEE76A97EDE7
:10B98000087AC6EE877AC7ED057A4FF000037B632D
:10B990004FF000033B634FF000033B61D7ED057AA6
:10B9A000FDEEE77A17EE903AFB6216E0FB6A9B0029
:10B9B000FA68134493ED007AFB6A9B00FA6813441B
:10B9C000D3ED007A67EE277A97ED0D7A77EE277A36
:10B9D000C7ED0D7AFB6A0133FB62D7ED067AFDEE07
:10B9E000E77A17EE902AFB6A9342DFDBD7ED057A00
:10B9F000FDEEE77A17EE903ABB6249E0BB6A002B96
:10BA00000AD1BB6A9B00FA6813441A684949BB6AA9
:10BA10009B000B441A6024E0BB6A9B00FA68134445
:10BA2000D3ED007A9FED447A67EE877AB7EEE75A56
:10BA3000D7ED087AB7EEE77A9FED396B27EE066B04
:10BA4000BB6A07EE903AB8EEE77B26EE076B85EE11
:10BA5000067BF7EEC77B374ABB6A9B001344C3EDF6
:10BA6000007A344ABB6A9B00134493ED007A314A52
:10BA7000BB6A9B001344D3ED007A67EE277A97EDFB
:10BA80000C7A77EE277AC7ED0C7ABB6A0133BB627A
:10BA9000D7ED067AFDEEE77A17EE902ABB6A93425D
:10BAA000ACDBD7ED0D7A77EEA77AB7EEE77AB0EE9A
:10BAB000470B0AF0EDFBB0EE405B9FED1B6B85EE94
:10BAC000067BF7EEC77BC7ED077AD7ED0C7A77EEEA
:10BAD000A77AB7EEE77AB0EE470B0AF0D9FBB0EEE3
:10BAE000405B9FED116B85EE067BF7EEC77BC7EDE4
:10BAF000047A97F90730114A0C339B00134404333E
:10BB0000FA691A6097F907300C4A20339B001344F6
:10BB100004333A691A6000BF3837BD4680BD00BFA4
:10BB20004AD8124DFB211940000000000000B0402F
:10BB30000C000020F0810020003C1946E880002025
:10BB400080B590B000AF786039604FF00003FB63C0
:10BB50004FF00003BB624FF00003BB634FF00003E4
:10BB60007B634FF000033B610023FB6000233B63DA
:10BB700016E03B6B9B007A68134493ED007A3B6BB5
:10BB80009B007A681344D3ED007A67EE277A97ED2D
:10BB90000F7A77EE277AC7ED0F7A3B6B01333B6361
:10BBA0003B68002B00DA01335B101A463B6B934273
:10BBB000DFDB4FF480537B624FF08B433B62944B4F
:10BBC000FB61D7ED076A97ED087AC6EE877AC7ED75
:10BBD000067A4FF000037B610023FB8551E0FA8D6C
:10BBE0007B6A002B00DA01335B109A4246DAFB8D48
:10BBF000002B0AD1FB8D9B007A681A44FB8D9B00B9
:10BC000079680B4412681A6024E0FB8D9B007A6807
:10BC10001344D3ED007A9FED7F7A67EE877AB7EE13
:10BC2000E75AD7ED067AB7EEE77A9FED756B27EE08
:10BC3000066BFB8D07EE903AB8EEE77B26EE076BBE
:10BC400085EE067BFB8D9B007A681344F7EEC77B7D
:10BC5000C3ED007AFB8D9B007A68134493ED007A64
:10BC6000FB8D9B007A681344D3ED007A67EE277A48
:10BC700097ED0E7A77EE277AC7ED0E7AFB8D0133BA
:10BC8000FB85FA8D7B6A002B00DA01335B109A4248
:10BC9000A5DB0023BB854DE0BA8D7B6A002B00DA63
:10BCA00001335B109A4242DABB8D002B0AD1BB8D67
:10BCB0009B007A681A44BB8D9B0079680B4412681C
:10BCC0001A6020E0BB8D9B007A681344D3ED007AA4
:10BCD000B7EEE75AD7ED067AB7EEE77A9FED486BF5
:10BCE00027EE066BBB8D07EE903AB8EEE77B26EEAB
:10BCF000076B85EE067BBB8D9B007A681344F7EEDD
:10BD0000C77BC3ED007ABB8D9B007A68134493ED2B
:10BD1000007ABB8D9B007A681344D3ED007A67EEFE
:10BD2000277A97ED0D7A77EE277AC7ED0D7ABB8DDE
:10BD30000133BB85BA8D7B6A002B00DA01335B10BF
:10BD40009A42A9DB07F10C0307F110024FF40061DE
:10BD50007868FCF73FFDD7ED0F7A77EEA77AB7EE5C
:10BD6000E77AB0EE470B0AF093FAB0EE405B3B681F
:10BD700007EE903AB8EEE76B85EE067BF7EEC77BF1
:10BD8000C7ED0A7AD7ED0E7A77EEA77AB7EEE77AA3
:10BD9000B0EE470B0AF07CFAB0EE405B3B6807EE72
:10BDA000903AB8EEE76B85EE067BF7EEC77B1A4B51
:10BDB000C3ED0B7AD7ED0D7A77EEA77AB7EEE77A77
:10BDC000B0EE470B0AF064FAB0EE406B9FED0E7BCD
:10BDD00026EE075B3B6807EE903AB8EEE76B85EE20
:10BDE000067BF7EEC77B0C4BC3ED0C7ABB6A07EE04
:10BDF000903AB0EE670A4037BD4680BDAFF3008091
:10BE00004AD8124DFB2119400000000000408F402D
:10BE100000606A46003C1946E880002080B483B088
:10BE200000AF0346FB710E4B1B680D4A23F0040361
:10BE30001360FB79DB08DAB20A4B1A70094B1B78E6
:10BE40009BB21A465201D21A92001344DB009AB2F6
:10BE5000054B1A8000BF0C37BD465DF8047B704768
:10BE600010E000E0BC000020BE00002080B485B0DF
:10BE700000AF0346FB80FB88144A12881146144A1F
:10BE800001FB03F35360124B00229A60104B1B68B6
:10BE90000F4A43F0010313600D4B1B68FB60FB6806
:10BEA00003F00103002B04D0FB6803F48033002B64
:10BEB000F2D0074B00221A60054B00229A6000BFA7
:10BEC0001437BD465DF8047B704700BFBE000020FC
:10BED00010E000E080B485B000AF7860144B1B78B0
:10BEE0001946144A7B6803FB01F35360114B00228F
:10BEF0009A60104B1B680F4A43F0010313600D4B0F
:10BF00001B68FB60FB6803F00103002B04D0FB6897
:10BF100003F48033002BF2D0064B00221A60054B4D
:10BF200000229A6000BF1437BD465DF8047B70475D
:10BF3000BC00002010E000E080B400AF034B1E22E4
:10BF40001A6000BFBD465DF8047B7047F0C1002059
:10BF500080B483B000AF7860094B1B687A6802FB3D
:10BF600003F30A3B7B6000BF7B685A1E7A60002B9C
:10BF7000FAD100BF0C37BD465DF8047B704700BFA7
:10BF8000F0C1002080B483B000AF78600B4B1B6819
:10BF90007A6802FB03F34FF47A7202FB03F30A3B65
:10BFA0007B6000BF7B685A1E7A60002BFAD100BF0D
:10BFB0000C37BD465DF8047B704700BFF0C1002020
:10BFC00080B485B000AFF860B9607A60FB68074A5A
:10BFD0001A60BB68064A1A607B6880221A6000BF3C
:10BFE0001437BD465DF8047B704700BFC0000020D9
:10BFF0001401002080B584B004AF4FF47A7302932B
:10C000004FF480730193054B009302230022A1217A
:10C01000034803F0B3FD00BFBD4680BD64C30020EC
:10C0200018C3002080B500AF054B00225A600122E2
:10C030000449054806F0E2FA62B600BF80BD00BFC1
:10C04000E0440120A0C7012020C7012080B400AF38
:10C05000094B0A4A1A600A4B4FF480521A60094B86
:10C0600000221A60064B1B68064A536000BFBD469B
:10C070005DF8047B704700BF00C20020DC04012093
:10C08000340300208C40002080B400AF0D4B4FF4EF
:10C090002F721A600B4B4FF4FA725A60094B4FF42F
:10C0A0007A729A60074B0A22DA60064B41F28832B4
:10C0B0001A61044B4FF47A725A6100BFBD465DF8B5
:10C0C000047B7047D080002080B500AFD820FFF7F8
:10C0D000A5FEFFF731FF00BF80BD000080B582B034
:10C0E00000AFFE20FFF78AF80A20FFF7BFFE01200D
:10C0F000FFF72EFFFFF75CF90020FFF7D7F8E020ED
:10C10000FFF79CF8FFF7FEF803461A461E4B1A701D
:10C110004FF4FA70FFF7AAFE1C4B1B687B601C4BA8
:10C120001B683B603B793A7811461846FFF74EF89A
:10C130000F20FFF7CFFEFC20FFF760F80A20FFF783
:10C14000C9FE0020FFF75AF80F20FFF7C3FEFFF7E4
:10C15000BBF8002210210F4803F034FC32230122E7
:10C160000D490E4805F086FA1920FFF77FFE0C4AAC
:10C1700044F20803134401221A700120FFF7AAFEBB
:10C1800000BF0837BD4680BD14030020B86D01080C
:10C19000BC6D01080000024004000020A4C701207B
:10C1A0008C400020B0B596B000AF02F042FD00F028
:10C1B00079F800F007FA00F0D7F900F067F900F01D
:10C1C000A3F900F005F900F043F9FFF72BFFFFF7A3
:10C1D0003DFFFFF759FFFFF777FFFFF70BFFFFF773
:10C1E0007DFF00233B6500237B6507F150030121A0
:10C1F000184607F082FA0246224B1A600023BB64FD
:10C200000023FB6407F148030121184607F075FA83
:10C2100002461D4B1A601D4B07F138040FCB84E812
:10C220000F0007F138030021184607F099FA02467B
:10C23000174B1A60174B07F11C041D460FCD0FC496
:10C2400095E8070084E8070007F11C030021184661
:10C2500007F007FA0246104B1A60104B3C461D4689
:10C260000FCD0FC495E8070084E807003B46002186
:10C27000184607F0F6F90246094B1A6007F0EAF98A
:10C28000FEE700BF6CC40020D0080220C06D01088A
:10C29000D4040120DC6D010870C40020046E010884
:10C2A00064C4002080B5B8B000AF07F1AC033422FD
:10C2B0000021184609F087FE07F1980300221A6052
:10C2C0005A609A60DA601A6107F10803902200212F
:10C2D000184609F078FE3C4B1B6C3B4A43F08053F8
:10C2E0001364394B1B6C03F080537B607B68374BC6
:10C2F0001B68364A43F440431360344B1B6803F415
:10C3000040433B603B680A23C7F8AC300123C7F8C1
:10C31000B8301023C7F8BC300123C7F8C03002235F
:10C32000C7F8C4300023C7F8C8300823C7F8CC309A
:10C33000D823C7F8D0300223C7F8D4300223C7F877
:10C34000D83007F1AC03184604F038F80346002B48
:10C3500001D000F09BFE03F0E1FF0346002B01D06B
:10C3600000F094FE0F23C7F898300223C7F89C30E2
:10C370000023C7F8A0304FF4A053C7F8A4304FF4FF
:10C380008053C7F8A83007F198030721184604F036
:10C39000C3FA0346002B01D000F078FE4FF40843A7
:10C3A000BB6000233B6600233B6707F10803184688
:10C3B00004F0A8FC0346002B01D000F067FE00BF8C
:10C3C000E037BD4680BD00BF00380240007000402D
:10C3D00080B500AF1B4B1C4A1A601A4B1B4A5A60AF
:10C3E000184B08229A60174B0122DA60154B002285
:10C3F0001A61144B00225A61124B00229A61114BB0
:10C400004FF40022DA610F4B00221A620D4803F04C
:10C4100025FB0346002B01D000F038FE002109481F
:10C4200003F08EFE0346002B01D000F02FFE00210A
:10C43000044803F0D0FE0346002B01D000F026FE96
:10C4400000BF80BD18C3002000580040684740204E
:10C4500080B500AF0B4B0C4A1A600A4B05225A609C
:10C46000084B40F6FF72DA60064B40F618429A60BD
:10C47000044803F0FCFE0346002B01D000F006FE4A
:10C4800000BF80BD08C300200030004080B500AF71
:10C490001B4B1C4A1A601A4B4FF482725A60184B9D
:10C4A00000229A60164B4FF4E062DA60144B0022CF
:10C4B0001A61134B01225A61114B4FF400729A61B9
:10C4C0000F4B2822DA610E4B00221A620C4B00221D
:10C4D0005A620B4B00229A62094B0722DA62084B20
:10C4E00000221A63064B00225A63054805F030F813
:10C4F0000346002B01D000F0C9FD00BF80BD00BF86
:10C50000A4C701200030014080B500AF144B154A8C
:10C510001A60134B4FF4E1325A60114B00229A60BB
:10C520000F4B0022DA600E4B00221A610C4B0C22DA
:10C530005A610B4B00229A61094B0022DA61084BC9
:10C5400000221A62064B00225A62054806F007F8DC
:10C550000346002B01D000F099FD00BF80BD00BF55
:10C5600020C701200014014080B582B000AF144BF9
:10C570001B6B134A43F480031363114B1B6B03F4CF
:10C5800080037B607B6800220521382002F089FC53
:10C59000382002F0A2FC002205213B2002F081FCA1
:10C5A0003B2002F09AFC00220521452002F079FC94
:10C5B000452002F092FC00BF0837BD4680BD00BF99
:10C5C0000038024080B58AB000AF07F114030022A2
:10C5D0001A605A609A60DA601A61384B1B6B374AEE
:10C5E00043F001031363354B1B6B03F001033B6105
:10C5F0003B69324B1B6B314A43F0020313632F4BF1
:10C600001B6B03F00203FB60FB682C4B1B6B2B4A7C
:10C6100043F008031363294B1B6B03F00803BB6053
:10C62000BB68264B1B6B254A43F004031363234B63
:10C630001B6B03F004037B607B6800221021204801
:10C6400003F0C0F900224FF440511E4803F0BAF93C
:10C6500008237B611C4BBB610023FB6107F11403C2
:10C660001946174802F0ECFF10237B610123BB61E0
:10C670000123FB6103233B6207F1140319461048B1
:10C6800002F0DEFF4FF440537B610123BB610023C6
:10C69000FB6100233B6207F114031946094802F0CD
:10C6A000CFFF00220521092002F0FBFB092002F048
:10C6B00014FC00BF2837BD4680BD00BF00380240D3
:10C6C00000000240000C02400000211080B584B040
:10C6D00000AF0346FB80FB88082B40F08480444B6E
:10C6E0001B78032B7FD1434A44F2080313441B7881
:10C6F000012B78D1404B1B78002B74D13F4B1B781A
:10C70000002B70D103233E4A3E493F4805F02CFBE5
:10C710003B4B1B781B0403F47F033C4A1360384BEC
:10C720005B781A02394B1B681343384A1360344B49
:10C730009B781A46354B1B681343344A1360334BBE
:10C740001B6803F40003002B06D0304B1B6843F03A
:10C750007F431A462D4B1A602C4B1B6807EE903A0C
:10C76000F8EEE77A2A4BC3ED007A294B93ED007A75
:10C77000DFED286AC7EE267A254BC3ED007A1D4B04
:10C780001B68234A12681B4902339B000B441A6042
:10C79000184B1B680133174A1360164B1A68154B68
:10C7A0005B689A421FD10023FB601B4B1B6807F19B
:10C7B0000C021146184607F0FBFAFB68012B0AD160
:10C7C000FB68002B07D0154B4FF080521A60BFF367
:10C7D0004F8FBFF36F8F074B00221A604FF4005149
:10C7E0000F4803F008F900BF1037BD4680BD00BFF9
:10C7F000140300208C40002008C801203C030020C6
:10C800002003002000000020A4C7012018030020FE
:10C81000D8040120C8CCCC496CC4002004ED00E051
:10C82000000C024080B584B000AF7860264B5B6896
:10C830005A1C25494A60254A1178234A13440A465E
:10C8400083F8A021214B1B780A2B20D11E4B0022FC
:10C850005A6007221E491F48FEF7ECFE0346FB7391
:10C86000FB7B002B0AD0184B01225A70164B00227A
:10C870001A7019497868FEF7D7FD08E01548FBF7EC
:10C880003FFD03461A460021124809F09CFB0E4B5F
:10C890005B680E2B0BDD0C4B00225A600D48FBF73A
:10C8A0002FFD03461A4600210A4809F08CFB00BF01
:10C8B00001220649786805F0A1FE0346002BF7D057
:10C8C00000BF1037BD4680BDE0440120A0C7012055
:10C8D000206E010880460120E880002080B584B0E9
:10C8E00000AF78604FF4FA73FB60134B1B68F96874
:10C8F000184607F0D1FB0346012BF6D10F4B1B78EE
:10C90000002BF2D10E4B1868002300220D4907F0CE
:10C910004DF9B8600A4B1B68184607F0CDFC02467B
:10C92000094B1A60BB68012BDFD1084B1B68184606
:10C9300008F066F8D9E700BF6CC4002008C80120E1
:10C94000D40401201400002004C3002064C400208B
:10C9500080B58AB000AF7860974B1B68184607F027
:10C96000ABFC0246954B1A60944B1B68002B00F001
:10C970007C83914B1B6864229149184607F0AAFA00
:10C98000F8618D4B1B68184607F096FC02468B4BEE
:10C990001A608C4803F0B1FC8B4B01221A70002303
:10C9A0007B6222E0864B1A687B6A9B0013441A68FC
:10C9B00086497B6A9B000B441A60814B1A687B6A2C
:10C9C0009B001A447B6A5B00126881499B000B4400
:10C9D0001A607B6A5B0001337D4A9B0013444FF071
:10C9E00000021A607B6A01337B627A4B1B687A6AA9
:10C9F0009A42D7D3FB69012BAED1774B1B68DAB2D1
:10CA0000764B1B68DBB272497548FDF736FB754BF8
:10CA10001B681A4674496E48FBF71CFE734B744A38
:10CA200006217148FBF7D6FE704B1B68002B03D123
:10CA30006E4B1B68013301E06C4B1B686B4A136043
:10CA40006C4B1B6807EE903AF8EE676A654B1B6803
:10CA500007EE903AB8EE677AC6EE877AC7ED067AA7
:10CA6000634BD3ED007A77EEA76A5A4B1B6807EE4B
:10CA7000903AB8EE677AC6EE877AC7ED057AD7EDB9
:10CA8000057A9FED5D7A67EE877AB7EEE75A574BE6
:10CA90001B6807EE903AB8EE677B9FED456B27EE7B
:10CAA000066BD7ED067AB7EEE77A26EE076B85EED2
:10CAB000067BF7EEC77BC7ED047AD7ED047AB7EEB5
:10CAC000E75A4A4B1B6807EE903AB8EE677B9FED3A
:10CAD000386B27EE066BD7ED067AB7EEE77A26EECF
:10CAE000076B85EE067BF7EEC77BC7ED037AD7EDC4
:10CAF000037A77EEA77AC7ED027A3B4B4FF000023C
:10CB00005A60394B4FF000029A60374B4FF00002E9
:10CB1000DA60354B4FF000021A61334B4FF00002E0
:10CB20005A61314B4FF000029A612F4B4FF00002D7
:10CB3000DA612D4B4FF000021A622B4A43F6E07384
:10CB400013444FF000021A60274A43F6E47313447B
:10CB50004FF000021A60244A43F6E87313444FF082
:10CB600000021A60204A43F6EC7313444FF00002AF
:10CB70001A601D4A43F6F07313444FF000021A6026
:10CB8000194A43F6F47313444FF000021A60164A30
:10CB900043F6F87313444FF000021A60124A43F64A
:10CBA000FC7313444FF000021A6000233B6236E02E
:10CBB0004AD8124DFB211940D404012004C300209F
:10CBC0006CC8012008C300203C030020DC040120C5
:10CBD00020470120340300202403002010000020FF
:10CBE000C80D02080C00002074C400202803002097
:10CBF00068C4002008000020003C19463B6ADB00A6
:10CC0000B14A1344B14A1360B04B1B683A6A52B23E
:10CC10001946AF48FEF780FE3B6A01333B623B6A30
:10CC2000022BEBD9AB4B1B681946A948FEF788FFCE
:10CC3000F0EE407AA84BC3ED0A7AA84B1868A54BD2
:10CC40001968A74BA44AFBF7C5FDA44B1868A14B74
:10CC50001968A44BA44AFBF7C2FEA04B18689D4B71
:10CC60001B68A24A1946FCF701F99C4B1868994BBE
:10CC70001B689F4A1946FBF76AFF984B1868954B4B
:10CC80001B689C4A1946FBF73BFE944B1868914B76
:10CC90001B68994A1946FCF701F88F4BD3ED006ADF
:10CCA0008D4B93ED037AC6EE877A8B4BC3ED077AF3
:10CCB000894B93ED007A884BD3ED017A77EE677A52
:10CCC000854BC3ED067A854B1A68824B1B68194663
:10CCD0001046FEF7F5FDF0EE407A7F4BC3ED087A83
:10CCE0007E4B1A687B4B1B6819461046FEF79AFD6F
:10CCF000F0EE407A784BC3ED097A804B1B78013314
:10CD0000DAB27E4B1A707D4B1B78012B3BD1724BF4
:10CD10001B68714AC2F8D4306F4B5B686E4AC2F828
:10CD2000D8306D4B9B696C4AC2F8EC306A4B9B68FB
:10CD3000694AC2F8DC30684BDB68674AC2F8E03009
:10CD4000654B1B69644AC2F8E430634B5B69624A15
:10CD5000C2F8E830604B9B6A5F4AC2F8FC305E4B19
:10CD6000DB695D4AC2F8F0305B4BDB6A5A4AC2F8B5
:10CD70000031594B1B6A584AC2F8F430564B5B6A73
:10CD8000554AC2F8F8305D4B1B78022B40F0848086
:10CD9000514B93ED357A504BD3ED007A77EE277AED
:10CDA0004D4BC3ED357A4C4B93ED367A4A4BD3ED70
:10CDB000017A77EE277A484BC3ED367A464B93EDEE
:10CDC0003B7A454BD3ED067A77EE277A424BC3ED9B
:10CDD0003B7A414B93ED377A3F4BD3ED027A77EEB6
:10CDE000277A3D4BC3ED377A3B4B93ED387A3A4B7C
:10CDF000D3ED037A77EE277A374BC3ED387A364B8B
:10CE000093ED397A344BD3ED047A77EE277A324BAF
:10CE1000C3ED397A304B93ED3A7A2F4BD3ED057A47
:10CE200077EE277A2C4BC3ED3A7A2B4B93ED3F7A72
:10CE3000294BD3ED0A7A77EE277A274BC3ED3F7A59
:10CE4000254B93ED3C7A244BD3ED077A77EE277A86
:10CE5000214BC3ED3C7A204B93ED407A1E4BD3ED32
:10CE60000B7A77EE277A1C4BC3ED407A1A4B93ED81
:10CE70003D7A194BD3ED087A77EE277A164BC3ED3E
:10CE80003D7A154B93ED3E7A134BD3ED097A77EE4D
:10CE9000277A114BC3ED3E7A184B1B78032B40F0D9
:10CEA000DB800D4B93ED357A0B4BD3ED007A37EEEB
:10CEB000277AF0EE086AC7EE267A074BC3ED007AB0
:10CEC000054B93ED367A1BE0D0800020380300201C
:10CED00074C4002034030020E880002000C2002039
:10CEE0002C03002030030020EC800020F080002084
:10CEF000F4800020F8800020FC8000201C0300202B
:10CF00005C4BD3ED017A37EE277AF0EE086AC7EE74
:10CF1000267A584BC3ED017A564B93ED3B7A554B2D
:10CF2000D3ED067A37EE277AF0EE086AC7EE267A56
:10CF3000504BC3ED067A4F4B93ED377A4D4BD3ED03
:10CF4000027A37EE277AF0EE086AC7EE267A494B66
:10CF5000C3ED027A474B93ED387A464BD3ED037A13
:10CF600037EE277AF0EE086AC7EE267A414BC3ED1A
:10CF7000037A404B93ED397A3E4BD3ED047A37EE8A
:10CF8000277AF0EE086AC7EE267A3A4BC3ED047AA8
:10CF9000384B93ED3A7A374BD3ED057A37EE277A53
:10CFA000F0EE086AC7EE267A324BC3ED057A314BB4
:10CFB00093ED3F7A2F4BD3ED0A7A37EE277AF0EED6
:10CFC000086AC7EE267A2B4BC3ED0A7A294B93EDFC
:10CFD0003C7A284BD3ED077A37EE277AF0EE086AD1
:10CFE000C7EE267A234BC3ED077A224B93ED407AA6
:10CFF000204BD3ED0B7A37EE277AF0EE086AC7EEB6
:10D00000267A1C4BC3ED0B7A1A4B93ED3D7A194BE4
:10D01000D3ED087A37EE277AF0EE086AC7EE267A63
:10D02000144BC3ED087A134B93ED3E7A114BD3EDBD
:10D03000097A37EE277AF0EE086AC7EE267A0D4BAA
:10D04000C3ED097A0C4B01221A700C4B00221A70A6
:10D0500008490B48FEF7E8F94FF48051094802F0FF
:10D06000CAFC094B00221A7076E4002007F002FC8B
:10D0700072E400BFE8800020E04401201C0300208F
:10D0800020C70120000C02403C03002080B400AF08
:10D0900000BFBD465DF8047B704780B485B000AF2B
:10D0A000B9607A603B600346FB737A683B689A42DA
:10D0B00004D2BA687B681344FA7B1A7000BF143735
:10D0C000BD465DF8047B704780B485B000AFB960A1
:10D0D0007A603B600346FB7300BF1437BD465DF8C2
:10D0E000047B704780B485B000AF786039607B689E
:10D0F000FB6002E0FB680133FB60FB681B78002BE0
:10D1000004D03B685A1E3A60002BF3D1FA687B6862
:10D11000D31A18461437BD465DF8047B704780B4B7
:10D1200083B000AF0346FB71FB792F2B04D9FB7949
:10D13000392B01D8012300E0002303F00103DBB207
:10D1400018460C37BD465DF8047B704780B584B047
:10D1500000AF78600023FB600EE0FA6813469B0086
:10D1600013445B0018467B681B68591C7A68116081
:10D170001B780344303BFB607B681B681B781846B8
:10D18000FFF7CDFF0346002BE7D1FB6818461037A9
:10D19000BD4680BD90B587B000AFF860B9607A60D9
:10D1A0003B607B683B617B6B03F00203002B25D166
:10D1B0007B6B03F00103002B20D1FB6A7B610AE04B
:10D1C0007A68531C7B60FC683B68B9682020A047E4
:10D1D0007B6901337B617A693B6B9A42F0D30DE046
:10D1E000FB6A013BFB62BA6AFB6A134418787A68EF
:10D1F000531C7B60FC683B68B968A047FB6A002B46
:10D20000EED17B6B03F00203002B0ED007E07A68AF
:10D21000531C7B60FC683B68B9682020A0477A6893
:10D220003B69D31A3A6B9A42F1D87B6818461C378F
:10D23000BD4690BD80B588B004AFF860B9607A6033
:10D240003B603B6B03F00203002B36D1FB6A002BE3
:10D2500018D03B6B03F00103002B13D097F820305C
:10D26000002B04D13B6B03F00C03002B0AD0FB6AAC
:10D27000013BFB6206E0FB695A1CFA61BA69134480
:10D2800030221A70FA69BB6A9A420AD2FB691F2BD4
:10D29000F1D906E0FB695A1CFA61BA6913443022DD
:10D2A0001A703B6B03F00103002B06D0FA69FB6A8E
:10D2B0009A4202D2FB691F2BECD93B6B03F010039F
:10D2C000002B58D03B6B03F48063002B16D1FB6915
:10D2D000002B13D0FA69BB6A9A4203D0FA69FB6A41
:10D2E0009A420BD1FB69013BFB61FB69002B05D026
:10D2F0007B6A102B02D1FB69013BFB617B6A102B1F
:10D300000FD13B6B03F02003002B0AD1FB691F2BCD
:10D3100007D8FB695A1CFA61BA69134478221A705B
:10D320001FE07B6A102B0FD13B6B03F02003002B17
:10D330000AD0FB691F2B07D8FB695A1CFA61BA692E
:10D34000134458221A700CE07B6A022B09D1FB6946
:10D350001F2B06D8FB695A1CFA61BA691344622272
:10D360001A70FB691F2B06D8FB695A1CFA61BA694F
:10D37000134430221A70FB691F2B24D897F82030F1
:10D38000002B07D0FB695A1CFA61BA6913442D229D
:10D390001A7018E03B6B03F00403002B07D0FB6905
:10D3A0005A1CFA61BA6913442B221A700BE03B6BCA
:10D3B00003F00803002B06D0FB695A1CFA61BA6916
:10D3C000134420221A703B6B0393FB6A0293FB69A0
:10D3D0000193BB6900933B687A68B968F868FFF706
:10D3E000D9FE034618461037BD4680BD80B596B0BD
:10D3F00008AFF860B9607A603B6000237B633B6CE8
:10D40000002B03D17B6D23F010037B657B6D03F450
:10D410008063002B02D03B6C002B33D03B6CBA6C8A
:10D42000B3FBF2F2B96C01FB02F29B1A87F83330BE
:10D4300097F83330092B04D897F833303033DAB209
:10D440000DE07B6D03F02003002B01D0412200E0B2
:10D45000612297F833301344DBB20A3BDAB27B6BBC
:10D46000591C796307F138010B4403F8282C3A6CF6
:10D47000BB6CB2FBF3F33B643B6C002B02D07B6BC9
:10D480001F2BCBD97B6D06933B6D0593FB6C0493EF
:10D49000BB6C039397F8443002937B6B019307F1C5
:10D4A000100300933B687A68B968F868FFF7C2FE1A
:10D4B000034618463837BD4680BD90B597B008AFD3
:10D4C000F860B9607A603B6000237B63D7E912346F
:10D4D000234303D1BB6E23F01003BB66BB6E03F482
:10D4E0008063002B03D0D7E91234234339D0D7E926
:10D4F0001201D7E91623FAF70BFF1C46134687F8EB
:10D50000333097F83330092B04D897F83330303361
:10D51000DAB20DE0BB6E03F02003002B01D04122F4
:10D5200000E0612297F833301344DBB20A3BDAB2F1
:10D530007B6B591C796307F138010B4403F8282CE5
:10D54000D7E91623D7E91201FAF7E2FE03460C46A3
:10D55000C7E91234D7E91234234302D07B6B1F2B67
:10D56000C5D9BB6DBA6E06927A6E05923A6E049278
:10D57000039397F8503002937B6B019307F11003EC
:10D5800000933B687A68B968F868FFF753FE034672
:10D5900018463C37BD4690BD90B59DB004AF78614C
:10D5A0003961FA60BB6087ED000B0023FB654FF02B
:10D5B00000034FF00004C7E9103497ED006B97EDBE
:10D5C000007BB4EE476BF1EE10FA0FD0BB6F039304
:10D5D0007B6F029303230193B74B0093BB68FA68F8
:10D5E00039697869FFF7D6FD03461EE297ED007BA7
:10D5F0009FEDA76BB4EEC67BF1EE10FA0FD5BB6FB3
:10D6000003937B6F029304230193AC4B0093BB689D
:10D61000FA6839697869FFF7BDFD034605E297EDC1
:10D62000007B9FED9D6BB4EEC67BF1EE10FA1DDD25
:10D63000BB6F03F00403002B01D0A14B00E0A14B12
:10D64000BA6F02F00402002A01D0042200E0032293
:10D65000B96F0391796F029101920093BB68FA68E8
:10D6600039697869FFF796FD0346DEE197ED007BA7
:10D670009FED8B6BB4EEC67BF1EE10FA08DC97EDF4
:10D68000007B9FED896BB4EEC67BF1EE10FA0FD5EF
:10D69000BB6F02937B6F01933B6F009397ED000B81
:10D6A000BB68FA683969786900F0C6F90346BCE1DD
:10D6B000002387F85B3097ED007BB5EEC07BF1EE81
:10D6C00010FA0AD5012387F85B309FED796B97ED4F
:10D6D000007B36EE477B87ED007BBB6F03F48063F6
:10D6E000002B0ED106233B670BE0FB6D5A1CFA653D
:10D6F00007F160021344302203F8482C3B6F013BD2
:10D700003B67FB6D1F2B02D83B6F092BEDD897EDC4
:10D71000007BFDEEC77B17EE903A7B657B6D07EED5
:10D72000903AB8EEE77B97ED006B36EE476B664AB2
:10D730003B6FDB00134493ED007B26EE077B87ED08
:10D740000E7B97ED0E7BFCEEC77B17EE903A3B65A8
:10D750003B6D07EE903AB8EE677B97ED0E6B36EEB9
:10D76000477B87ED107B97ED107BB6EE006BB4EE38
:10D77000C67BF1EE10FA18DD3B6D01333B653B6D66
:10D7800007EE903AB8EE676B4F4A3B6FDB001344ED
:10D7900093ED007BB4EEC76BF1EE10FA19DB0023BA
:10D7A0003B657B6D01337B6513E097ED107BB6EE37
:10D7B000006BB4EEC67BF1EE10FA0AD43B6D002B81
:10D7C00004D03B6D03F00103002B02D03B6D01330D
:10D7D0003B653B6F002B2ED17B6D07EE903AB8EE88
:10D7E000E77B97ED006B36EE477B87ED107B97ED7F
:10D7F000107BB6EE006BB4EEC67BF1EE10FA4CBFB8
:10D8000001230023DBB283F00103DBB2002B08D13C
:10D8100097ED107BB6EE006BB4EEC67BF1EE10FA1E
:10D8200073DD7B6D03F00103002B00F091807B6DB5
:10D8300001337B658CE03B6FFB6420E0FB6C013BBC
:10D84000FB64396D214BA3FB0123DA0813469B00CF
:10D8500013445B00CA1AD2B2FB6D591CF965303211
:10D86000D2B207F160010B4403F8482C3B6D174A14
:10D87000A2FB0323DB083B653B6D002B03D0FB6D54
:10D880001F2BDBD92DE000BF2BE000BFAFF30080E2
:10D89000FFFFFFFFFFFFEFFFFFFFFFFFFFFFEF7F38
:10D8A0000000000065CDCD410000000065CDCDC178
:10D8B0000000000000000000286E01082C6E010826
:10D8C000346E01083C6E0108D80D0208CDCCCCCCDA
:10D8D000FB6D5A1CFA6507F160021344302203F80D
:10D8E000482CFB6D1F2B04D8FB6C5A1EFA64002BCE
:10D8F000EED1FB6D1F2B2BD8FB6D5A1CFA6507F17F
:10D90000600213442E2203F8482C21E07A6D494B23
:10D9100083FB02139910D317C91A0B469B000B44C3
:10D920005B00D11ACAB2FB6D591CF9653032D2B214
:10D9300007F160010B4403F8482C7B6D3D4A82FBE4
:10D9400003129210DB17D31A7B657B6D002B03D07B
:10D95000FB6D1F2BDAD900E000BFBB6F03F00203A1
:10D96000002B24D1BB6F03F00103002B1FD07B6F72
:10D97000002B15D097F85B30002B04D1BB6F03F060
:10D980000C03002B0CD07B6F013B7B6708E0FB6D29
:10D990005A1CFA6507F160021344302203F8482C40
:10D9A000FA6D7B6F9A4202D2FB6D1F2BEFD9FB6D94
:10D9B0001F2B2AD897F85B30002B09D0FB6D5A1C1F
:10D9C000FA6507F1600213442D2203F8482C1CE08D
:10D9D000BB6F03F00403002B09D0FB6D5A1CFA65E2
:10D9E00007F1600213442B2203F8482C0DE0BB6FB3
:10D9F00003F00803002B08D0FB6D5A1CFA6507F1F1
:10DA000060021344202203F8482CBB6F03937B6F02
:10DA10000293FB6D019307F118030093BB68FA684A
:10DA200039697869FFF7B6FB034618466437BD4687
:10DA300090BD00BF676666662DE990489AB006AF54
:10DA400078613961FA60BB6087ED000B97ED006B80
:10DA500097ED007BB4EE476BF1EE10FA11D197ED24
:10DA6000007B9FEDC56BB4EEC67BF1EE10FA08DCCF
:10DA700097ED007B9FEDC26BB4EEC67BF1EE10FA22
:10DA80000FD5BB6E02937B6E01933B6E009397EDB7
:10DA9000000BBB68FA6839697869FFF77DFD0346BA
:10DAA000CDE197ED007BB5EEC07BF1EE10FA4CBFF7
:10DAB0000123002387F8433097F84330002B05D02B
:10DAC00097ED007BB1EE477B87ED007BBB6E03F4E7
:10DAD0008063002B01D106233B66D7E90034C7E9F8
